:100000000C9473000C949B000C949B000C949B002C
:100010000C949B000C949B000C949B000C949B00F4
:100020000C949B000C949B000C949B000C949B00E4
:100030000C949B000C949B000C949B000C949B00D4
:100040000C9485060C949B000C94BA070C94FD0745
:100050000C949B000C949B000C949B000C949B00B4
:100060000C949B000C949B00005EBCE2613FDD831E
:10007000C29C7E20A3FD1F41009D23BE46DB65F888
:100080008C11AF32CA57E97400000007000201006A
:100090000003040600000000000000000102040844
:1000A00010204080010204081020010204081020E2
:1000B000040404040404040402020202020203030E
:1000C00003030303000000002300260029000000B2
:1000D0000000250028002B0000000000240027005D
:1000E0002A009801C00811241FBECFEFD8E0DEBF60
:1000F000CDBF11E0A0E0B1E0E4ECFCE102C005906E
:100100000D92A232B107D9F721E0A2E2B1E001C01D
:100110001D92AB3FB207E1F710E0C3E7D0E004C0A7
:100120002197FE010E94050EC137D107C9F70E9431
:10013000FB080C94600E0C9400000F931F93CF9358
:100140008C01C62F4AE050E062E070E08DE491E05F
:100150000E946E0B6DE071E08DE491E00E94C50A93
:100160004AE050E0B8018DE491E00E946E0B6DE032
:1001700071E08DE491E00E94C50A4AE050E061E040
:1001800070E08DE491E00E946E0B6DE071E08DE413
:1001900091E00E94C50A4AE050E060E070E08DE422
:1001A00091E00E946E0B6DE071E08DE491E00E94A1
:1001B000C50A4AE050E062E070E08DE491E00E9400
:1001C0006E0B6DE071E08DE491E00E94C50AC111F3
:1001D00003C069E071E002C066E071E08DE491E087
:1001E0000E94C50A6FE071E08DE491E0CF911F910C
:1001F0000F910C94C50ACF93DF9340E855E260E07D
:1002000070E08DE491E00E94380882E291E00E9463
:100210007F03C2E0D0E061E08C2F0E94190661E00C
:100220008C2F0E94550660E0CE010E949D00219611
:10023000CA30D10581F7DF91CF9108952F923F9277
:100240004F925F926F927F928F929F92AF92BF92E6
:10025000CF92DF92EF92FF920F931F93CF93DF9392
:1002600000D01F92CDB7DEB75C014B012901FB0125
:100270000481158101501109612C712CCC24CA9480
:10028000DC2C212C312CE12CF12C7B826A8206158E
:1002900017057CF14E145F042CF16A817B81C40147
:1002A00049830E94350A2A813B812F5F3F4F498154
:1002B000841741F08A819B818017910719F0DB82B6
:1002C000CA820CC09FEFE91AF90A1601EFEF2E1A45
:1002D0003E0A6016710611F43B832A833901CA80F5
:1002E000DB80D3CF9601A101B401C5010E94370A7A
:1002F00008C04E145F04B4F360E171E0C5010E94D0
:100300007609C5010F900F900F90DF91CF911F914B
:100310000F91FF90EF90DF90CF90BF90AF909F90A4
:100320008F907F906F905F904F903F902F900895A7
:100330006AE086E391E00E941D0566E371E082E2D7
:1003400091E00C94A502CF92DF92EF92FF921F935F
:10035000CF93DF93CDB7DEB7AA970FB6F894DEBF81
:100360000FBECDBF8DE491E00E942007892B09F4D8
:10037000BEC04AE06DE471E0CE0184960E94A50BF8
:10038000BE016C5D7F4FCE0101960E94A30920E063
:1003900030E04BE3BE016F5F7F4FCE0108960E94B5
:1003A0001E01CE0108960E947D0A6B017C01CE01E0
:1003B00008960E940809CE0101960E94080982E071
:1003C000C816D10409F08FC0BE016C5D7F4FCE010D
:1003D00001960E94A30921E030E04BE3BE016F5F6C
:1003E0007F4FCE0108960E941E01CE0108960E9402
:1003F0007D0A162FCE0108960E940809CE010196AB
:100400000E940809BE016C5D7F4FCE0101960E94DB
:10041000A30922E030E04BE3BE016F5F7F4FCE01C6
:100420004D960E941E01CE0101960E940809BE0150
:100430006C5D7F4FCE0101960E94A30923E030E05E
:100440004BE3BE016F5F7F4FCE0146960E941E01B7
:10045000CE0101960E940809BE016C5D7F4FCE015E
:1004600001960E94A30924E030E04BE3BE016F5FD8
:100470007F4FCE010F960E941E01CE0101960E9471
:100480000809BE016C5D7F4FCE0101960E94A30951
:1004900025E030E04BE3BE016F5F7F4FCE01089651
:1004A0000E941E01CE0101960E94080966E071E0DB
:1004B000CE0108960E94050A61E0811160E082E0A9
:1004C000810F0E945506CE0108960E940809CE01B0
:1004D0000F960E940809CE0146960E940809CE0197
:1004E0004D960E940809CE0184960E940809AA969A
:1004F0000FB6F894DEBF0FBECDBFDF91CF911F9135
:10050000FF90EF90DF90CF9008950C94A301FB0132
:100510008081883261F028F4803149F0823229F4F8
:1005200006C08B3321F0823411F080E0089581E021
:100530000895FC017783668314821582108289E016
:10054000818381E0828383830895CF93DF93EC01DD
:100550000E9499021B8A1A8ADF91CF910895CF9346
:10056000DF93EB0167E0CE010E94D90591E02F8176
:10057000821390E0892FDF91CF910895CF92DF927F
:10058000EF92FF920F931F93CF93DF9300D0CDB7DD
:10059000DEB78C017A01FC018681978169837A83B9
:1005A0000E94E90369817A81882319F1F801868123
:1005B00097810E94E40440E06EEBF8018681978108
:1005C0000E9486046701F9E0EF0EF11CF8018681B4
:1005D00097810E94C804F60181936F01EE15FF0513
:1005E000A9F7F801868197810E94E90391E08130A3
:1005F00009F090E0892F0F900F90DF91CF911F911C
:100600000F91FF90EF90DF90CF900895CF93DF93FD
:10061000EA010E94BE02882339F068E0CE010E9400
:10062000D90591E02885821390E0892FDF91CF9141
:100630000895EF92FF921F93CF93DF9300D0CDB731
:10064000DEB77C01FC018681978169837A830E94F1
:10065000E90369817A81F701868197810E94E40428
:1006600040E064EBF701868197810E948604F701E0
:10067000868197810E945B04182FF70186819781FC
:100680000E94E90381E0111180E00F900F90DF914B
:10069000CF911F91FF90EF900895CF93DF93CDB747
:1006A000DEB729970FB6F894DEBF0FBECDBFFB01B2
:1006B00020812031D1F0AE014F5F5F4F0E940603D1
:1006C000882389F08D818F3361F020F48F3159F4C4
:1006D00089E00CC08F3519F08F3739F004C08BE0FA
:1006E00005C08AE003C080E001C08CE029960FB607
:1006F000F894DEBF0FBECDBFDF91CF910895FF927A
:100700000F931F93CF93DF93CDB7DEB728970FB624
:10071000F894DEBF0FBECDBF8C01FC0186819781AE
:100720000E941105F8011482158241E0BE016F5F3D
:100730007F4FF801868197810E9442058823E9F165
:10074000BE016F5F7F4FC8010E94AF02882369F32B
:10075000F8018081811108C0BE016F5F7F4FC80121
:100760000E941903811125C0F801F180BE016F5F5D
:100770007F4FC8010E944D038F1518F4F801818145
:1007800006C0BE016F5F7F4FC8010E944D03F80194
:10079000818384818F5F8483BE016F5F7F4FC80137
:1007A0000E948702882309F2F80185818F5F858383
:1007B000BCCF81E0F8018083D7CF28960FB6F8949C
:1007C000DEBF0FBECDBFDF91CF911F910F91FF9084
:1007D0000895FF920F931F93CF93DF93FC01008145
:1007E000C181D281F8948981F02EF0948F21898380
:1007F00078941DE7115029F182E090E00E94DB0619
:1008000088818023B9F3F8948A818F218A83898132
:10081000802B8983789480EE91E00E94DB06F89427
:100820008981F822F98286E490E00E94DB068881C3
:10083000082311E009F010E078948AE991E00E9421
:10084000DB06812FDF91CF911F910F91FF900895CB
:100850001F93CF93DF93FC011081C181D281812F3F
:10086000809560FF12C0F8949A8189238A838981D8
:10087000812B89838AE090E00E94DB068A81182B15
:100880001A83789487E390E011C0F8949A818923C1
:100890008A838981812B898381E490E00E94DB0631
:1008A0008A81182B1A83789485E090E0DF91CF91AC
:1008B0001F910C94DB060F931F93CF93DF93FC01E2
:1008C0001081C181D281F8948981812B89838A81A9
:1008D000012F009580238A8383E090E00E94DB064D
:1008E0008981082309838AE090E00E94DB06C881A1
:1008F000789485E390E00E94DB061C2381E009F4F4
:1009000080E0DF91CF911F910F910895CF92DF92F8
:10091000EF92FF920F931F93CF93DF931F92CDB768
:10092000DEB76C01E62E08E010E0FF24F39461E0EE
:100930008F2D8E2109F460E0C60149830E942804AE
:10094000FF0C0150110949810115110581F7411171
:1009500015C0F894D6011196ED91FC9112979181F2
:100960008C918095892381831196ED91FC9112974A
:1009700092818C9180958923828378940F90DF9166
:10098000CF911F910F91FF90EF90DF90CF9008953E
:10099000EF92FF920F931F93CF93DF937C0108E0B8
:1009A00010E0C0E0D1E0C7010E945B048111CD2BB3
:1009B000DD0F01501109B9F78C2FDF91CF911F91F5
:1009C0000F91FF90EF900895CF92DF92EF92FF92F8
:1009D0000F931F93CF93DF931F92CDB7DEB78C0198
:1009E000F62E40E065E579830E948604CF2C79815C
:1009F000D72E760188E0E80EF11CF60161916F01B7
:100A000040E0C8010E948604CE14DF04B1F70F90C5
:100A1000DF91CF911F910F91FF90EF90DF90CF90DA
:100A20000895FC01138615861486DC011B96339607
:100A30001E92AE17BF07E1F708950F931F93CF9350
:100A40008C01C62F60E08C2F0E9419066C2F70E07D
:100A5000FB01E456FF4FE491D801EC93FB01E05514
:100A6000FF4FE491F0E0EE0FFF1FEC53FF4F859135
:100A70009491F80192838183C801CF911F910F91C6
:100A80000C941105AF92BF92CF92DF92EF92FF923A
:100A90000F931F93CF93DF931F92CDB7DEB75C0107
:100AA000D62EE72EFC018585811107C0C50149833B
:100AB0000E94E9034981811106C0F501138615865C
:100AC000148680E06AC0442319F040E060EF02C061
:100AD00040E06CEEC5010E94860401E0F12CC12CBF
:100AE00011E0C5010E945B04682FC50169830E9463
:100AF0005B046981613019F48130B9F433C04F2D42
:100B000050E068131BC0F5018385181730F4E40F1B
:100B1000F51F8381802349F402C0181731F060E08B
:100B2000193058F4F501148708C0F501EF0DF11DD7
:100B30008381802B838361E009C0C12EF501E40F1E
:100B4000F51F9381802F809589238383C5010E949F
:100B500028041F5F000F11F4F39401E0F7E0FF1584
:100B600008F0BFCF113408F4A8CFF501C386C11037
:100B700002C081E08587F5018381882309F49DCF38
:100B8000D5011396ED2DFE2D9501255F3F4F8D91DB
:100B90008193A217B307D9F781E00F90DF91CF912E
:100BA0001F910F91FF90EF90DF90CF90BF90AF908B
:100BB0000895DC0180E0615090F09D919827E92F25
:100BC000EF70F0E0E859FF4F249192959F70E92F64
:100BD000F0E0E858FF4FE4918E2F8227ECCF089584
:100BE000833081F028F4813099F08230A1F00895AB
:100BF0008630A9F08730B9F08430D1F4809180003C
:100C00008F7D03C0809180008F778093800008954E
:100C100084B58F7702C084B58F7D84BD089580919F
:100C2000B0008F7703C08091B0008F7D8093B000BB
:100C30000895CF93DF9390E0FC01E456FF4F249199
:100C4000FC01E055FF4F8491882361F190E0880F0B
:100C5000991FFC01E852FF4FC591D491FC01E2536A
:100C6000FF4FA591B491611109C09FB7F894888195
:100C7000209582238883EC912E230BC0623061F48F
:100C80009FB7F8943881822F809583238883EC91D5
:100C90002E2B2C939FBF06C08FB7F894E8812E2B84
:100CA00028838FBFDF91CF9108951F93CF93DF9358
:100CB000282F30E0F901E857FF4F8491F901E456FD
:100CC000FF4FD491F901E055FF4FC491CC23C9F0F7
:100CD000162F81110E94F005EC2FF0E0EE0FFF1FA0
:100CE000E253FF4FA591B4918FB7F894111105C04D
:100CF0009C91ED2FE095E92302C0EC91ED2BEC9354
:100D00008FBFDF91CF911F9108951F920F920FB661
:100D10000F9211242F933F938F939F93AF93BF9381
:100D20008091450190914601A0914701B091480101
:100D30003091440123E0230F2D3720F40196A11DAB
:100D4000B11D05C026E8230F0296A11DB11D2093F9
:100D500044018093450190934601A0934701B093CD
:100D600048018091490190914A01A0914B01B091B5
:100D70004C010196A11DB11D8093490190934A0138
:100D8000A0934B01B0934C01BF91AF919F918F9174
:100D90003F912F910F900FBE0F901F9018952FB776
:100DA000F8946091450170914601809147019091BE
:100DB00048012FBF0895019739F0880F991F880FB8
:100DC000991F02970197F1F70895789484B582608E
:100DD00084BD84B5816084BD85B5826085BD85B5DF
:100DE000816085BDEEE6F0E0808181608083E1E88E
:100DF000F0E01082808182608083808181608083C6
:100E0000E0E8F0E0808181608083E1EBF0E08081C8
:100E100084608083E0EBF0E0808181608083EAE79A
:100E2000F0E0808184608083808182608083808123
:100E3000816080838081806880831092C1000895E2
:100E4000FC0124853585F901E05CFF4F80819181AB
:100E5000329620813181821B930B8F7399270895DD
:100E6000DC011C96ED91FC911D97DF01A05CBF4F4A
:100E70002D913C91119712968D919C911197281765
:100E8000390739F08D919C91E80FF91F808190E02E
:100E900008958FEF9FEF0895FC01A485B585FD01AE
:100EA000E05CFF4F2081318132968081918128174B
:100EB000390779F080819181A80FB91F8C91208129
:100EC00031812F5F3F4F2F7333273183208390E091
:100ED00008958FEF9FEF0895FC0181A1882329F0E9
:100EE000A489B5898C9186FFFBCF11A208950F9339
:100EF0001F93CF93DF93FC01A685B7858D01005C1E
:100F00001F4FE8018881998101968F739927AD0160
:100F10004E5B5F4FEA012881398182179307D1F335
:100F2000E80128813981A20FB31F6C93A685B7858C
:100F3000A05CBF4F11969C938E93A689B7892C9184
:100F400081E090E0078C02C0880F991F0A94E2F7B5
:100F5000822B8C9381E081A30488F589E02D808128
:100F60008064808381E090E0DF91CF911F910F91A9
:100F7000089508951F920F920FB60F9211242F9388
:100F80004F935F938F939F93EF93FF938091C00054
:100F900082FD1CC02091C6008091F3019091F40164
:100FA00001968F7399274091F5015091F6018417AE
:100FB000950771F0E091F301F091F401ED54FE4FCB
:100FC00020839093F4018093F30102C08091C600C6
:100FD000FF91EF919F918F915F914F912F910F9082
:100FE0000FBE0F901F9018958DE491E00E9420078E
:100FF000892B11F00C94B90708951F920F920FB628
:101000000F9211242F933F938F939F93EF93FF930E
:101010002091AF013091B0018091B1019091B20166
:101020002817390731F48091C1008F7D8093C1006A
:1010300014C0E091B101F091B201E159FE4F20815D
:101040008091B1019091B20101968F73992790938D
:10105000B2018093B1012093C600FF91EF919F915F
:101060008F913F912F910F900FBE0F901F90189569
:10107000CF92DF92EF92FF920F931F93CF93DF9364
:10108000EC016A017B014115514E6105710509F1C1
:10109000EC89FD8981E090E008A002C0880F991FCB
:1010A0000A94E2F7808360E079E08DE390E0A701A5
:1010B00096010E94E30D89019A010150110921094D
:1010C0003109369527951795079598010115104117
:1010D000A8F0EC89FD89108260E874E88EE190E068
:1010E000A70196010E94E30DDA01C9010197A10948
:1010F000B109B695A795979587959C01E889F989D7
:101100003083EA89FB89208319A2EE89FF89408117
:1011100081E090E09C010C8C02C0220F331F0A94E6
:10112000E2F7242B2083EE89FF8940819C010D8CFE
:1011300002C0220F331F0A94E2F7242B2083EE898A
:10114000FF8940819C010E8C02C0220F331F0A943C
:10115000E2F7242B2083EE89FF8920810F8C02C0C7
:10116000880F991F0A94E2F7809582238083DF918C
:10117000CF911F910F91FF90EF90DF90CF90089546
:10118000EDE4F1E01382128288EE93E0A0E0B0E09B
:1011900084839583A683B78385E191E091838083DF
:1011A00083EB91E0958784878FE691E09787868728
:1011B00085EC90E0918B808B84EC90E0938B828B1C
:1011C00080EC90E0958B848B81EC90E0978B868B04
:1011D00082EC90E0918F808F86EC90E0938F828FED
:1011E00084E0848F83E0858F87E0868F85E0878F1A
:1011F00081E080A308950E94E5060E94FB00C4EFF1
:10120000D7E00E9485022097E1F30E94F407F9CF0E
:10121000FC01808191810C94620CCF93DF93EC01EF
:1012200088819981009711F00E94620C19821882BE
:101230001D821C821B821A82DF91CF9108950F9329
:101240001F93CF93DF93EC018B016F5F7F4F8881FA
:1012500099810E94FA0C009731F0998388831B834F
:101260000A8381E001C080E0DF91CF911F910F914F
:101270000895CF93DF93EC0188819981892B29F020
:101280008A819B818617970760F4CE010E941F090F
:10129000882341F08C819D81892B19F4E881F981A3
:1012A000108281E0DF91CF910895EF92FF920F932A
:1012B0001F93CF93DF93EC017B018A01BA010E9457
:1012C0003909811104C0CE010E940D0907C01D8398
:1012D0000C83B701888199810E94440ECE01DF9171
:1012E000CF911F910F91FF90EF900895FC01118213
:1012F0001082138212821582148216826115710582
:1013000051F0FB0101900020E9F73197AF01461B36
:10131000570B0C9455090895CF93DF93EC01FB0113
:101320008617970761F0608171816115710529F059
:10133000448155810E94550902C00E940D09CE01C9
:10134000DF91CF910895FC011182108213821282E5
:101350001582148216820C948C09CF93DF93EC01D2
:101360006115710559F0FB0101900020E9F73197F3
:10137000AF01461B570B0E94550902C00E940D0980
:10138000CE01DF91CF910895EF92FF920F931F93BB
:10139000CF93DF93FC01248135816115710511F430
:1013A00080E019C041155105A9F07B01EC018A01CB
:1013B000020F131FB8010E943909882389F328817D
:1013C00039818C819D81B701820F931F0E94440E49
:1013D0001D830C8381E0DF91CF911F910F91FF90CE
:1013E000EF900895CF93DF9300D0CDB7DEB7698338
:1013F0001A8241E050E0BE016F5F7F4F0E94C40936
:101400000F900F90DF91CF910895FC0124813581D9
:10141000232B31F421E061157105A1F0FB0108C017
:10142000FC01808191816115710531F421E0FC019D
:101430008081882339F005C00E943B0E21E0892B72
:1014400009F020E0822F0895FC0124813581621784
:10145000730748F480819181009729F0FC01E60F21
:10146000F71F8081089580E008950C94240ABF92AC
:10147000CF92DF92EF92FF920F931F93CF93DF9360
:101480007C016B018A01E9012417350720F4812FC3
:101490008901C42FD82F60E171E0C7010E9476094D
:1014A000D60114968D919C91159780179107D0F0D5
:1014B0008C179D0708F4EC01D601ED91FC91119772
:1014C000EC0FFD1FB08010824D915C91BA01600F4E
:1014D000711FC7010E94AD09D601ED91FC91EC0F7F
:1014E000FD1FB082C701DF91CF911F910F91FF9037
:1014F000EF90DF90CF90BF900895FC0180819181A3
:10150000009711F00C940B0E60E070E0CB01089591
:10151000CF92DF92EF92FF920F931F93CF93DF93BF
:101520006C01EB017B01E40EF51E00E010E0CE152E
:10153000DF0561F06991D601ED91FC910190F08198
:10154000E02DC6010995080F191FF1CFC801DF91E1
:10155000CF911F910F91FF90EF90DF90CF90089562
:101560006115710579F0FB0101900020E9F73197D1
:10157000AF01461B570BDC01ED91FC910280F3811A
:10158000E02D099480E090E008950C94B00ADC010D
:10159000ED91FC910190F081E02D09948F929F9242
:1015A000AF92BF92CF92DF92EF92FF920F931F9371
:1015B000CF93DF93CDB7DEB7A1970FB6F894DEBF18
:1015C0000FBECDBF6C01142FE52FCB01022F19A246
:1015D000223008F40AE07E0121E2E20EF11C802EA6
:1015E000912CA12CB12C612F7E2FA50194010E947A
:1015F000E30D029F1019112481E0E81AF1081A3056
:1016000014F4105D01C0195CF7011083122FE32F51
:10161000CA01232B242B252B31F7B701C6010E94C9
:10162000B00AA1960FB6F894DEBF0FBECDBFDF9112
:10163000CF911F910F91FF90EF90DF90CF90BF90CF
:10164000AF909F908F900895CF92DF92EF92FF928C
:101650000F931F93CF93DF93EC016A017B01211558
:10166000310579F4E881F9810190F081E02D642F52
:10167000DF91CF911F910F91FF90EF90DF90CF906E
:1016800009942A303105E9F477FF1AC06DE20E940F
:10169000C70A8C0144275527BA014C195D096E0908
:1016A0007F092AE0CE010E94CE0A800F911FDF91B0
:1016B000CF911F910F91FF90EF90DF90CF90089501
:1016C0002AE0B701A601CE01DF91CF911F910F91C2
:1016D000FF90EF90DF90CF900C94CE0A9A01AB016F
:1016E000770F660B770B0C94240B0F931F93CF93FC
:1016F000DF93EC010E94CF06688779878A879B87F2
:10170000E881F9810680F781E02DCE01099597FFE8
:1017100017C00E94CF06088519852A853B85DC0104
:10172000CB01801B910BA20BB30B0C811D812E8171
:101730003F8180179107A207B30710F38FEF9FEF48
:10174000DF91CF911F910F910895EF92FF920F9328
:101750001F93CF93DF93EC017B01042F60E171E0D5
:101760000E947609C7010E94750B002E000C110B18
:1017700097FD0BC08017910741F0682FCE010E94A2
:10178000F209C7010E94750BF3CFCE01DF91CF9113
:101790001F910F91FF90EF900895CF93DF938230C8
:1017A000910510F482E090E0E091F901F091FA01E6
:1017B00020E030E0C0E0D0E0309711F1408151816D
:1017C00048175907C0F04817590761F4828193817F
:1017D000209719F09B838A832BC09093FA01809302
:1017E000F90126C02115310519F04217530718F4E5
:1017F0009A01BE01DF01EF010280F381E02DDCCF11
:101800002115310509F1281B390B2430310590F4DD
:1018100012968D919C9113976115710521F0FB0132
:101820009383828304C09093FA018093F901FD01B0
:10183000329644C0FD01E20FF31F81939193225031
:1018400031092D933C933AC02091F7013091F80172
:10185000232B41F420910201309103013093F801D0
:101860002093F701209100013091010121153105EC
:1018700041F42DB73EB74091040150910501241B5E
:10188000350BE091F701F091F801E217F307A0F4AE
:101890002E1B3F0B2817390778F0AC014E5F5F4FC6
:1018A0002417350748F04E0F5F1F5093F8014093FF
:1018B000F7018193919302C0E0E0F0E0CF01DF9166
:1018C000CF9108950F931F93CF93DF93009709F45F
:1018D0008CC0FC013297138212820091F9011091A1
:1018E000FA010115110581F420813181820F931FC6
:1018F0002091F7013091F8012817390779F5F09315
:10190000F801E093F70171C0D80140E050E0AE1754
:10191000BF0750F412962D913C911397AD012115FC
:10192000310509F1D901F3CF9D01DA013383228317
:1019300060817181860F971F8217930769F4EC010C
:1019400028813981260F371F2E5F3F4F3183208337
:101950008A819B8193838283452B29F4F093FA013A
:10196000E093F90142C01396FC93EE931297ED01B8
:10197000499159919E01240F351FE217F30771F425
:1019800080819181840F951F029611969C938E936E
:101990008281938113969C938E931297E0E0F0E0FE
:1019A000D80112968D919C911397009719F0F80128
:1019B0008C01F6CF8D919C9198012E5F3F4F820F45
:1019C000931F2091F7013091F8012817390769F426
:1019D000309729F41092FA011092F90102C0138293
:1019E00012821093F8010093F701DF91CF911F91BC
:1019F0000F9108956F927F928F929F92AF92BF92B4
:101A0000CF92DF92EF92FF920F931F93CF93DF93CA
:101A1000EC01009789F4CB01DF91CF911F910F91D9
:101A2000FF90EF90DF90CF90BF90AF909F908F90FE
:101A30007F906F900C94CD0BFC01E60FF71F9C017B
:101A400022503109E217F30708F4ACC0D9010D9117
:101A50001C91119706171707B0F00530110508F40F
:101A60009FC0C80104978617970708F499C00250D1
:101A70001109061B170B019311936D937C93CF01F2
:101A80000E94620C8DC05B01A01AB10A4C01800E4D
:101A9000911EA091F901B091FA0140E050E0E12CD3
:101AA000F12C109709F44AC0A815B905D1F56D902D
:101AB0007C901197630182E0C80ED11CCA14DB042C
:101AC00080F1A3014A195B096A0182E0C80ED11CAA
:101AD0001296BC9012971396AC91B5E0CB16D10438
:101AE00040F0B282A38351834083D9016D937C93EC
:101AF0000AC00E5F1F4FC301800F911FF901918330
:101B00008083EB2DFA2FE114F10431F0D701139605
:101B1000FC93EE93129744C0F093FA01E093F9011D
:101B20003FC08D919C9111974817590708F4AC015B
:101B30007D0112960D90BC91A02DB3CF8091F7013D
:101B40009091F80188159905E1F446175707C8F4F4
:101B50008091000190910101009741F48DB79EB7EB
:101B60004091040150910501841B950BE817F9077A
:101B7000C8F4F093F801E093F701F90171836083F1
:101B80000FC0CB010E94CD0B7C01009759F0A8013A
:101B9000BE010E94320ECE010E94620CC70104C039
:101BA000CE0102C080E090E0DF91CF911F910F91B4
:101BB000FF90EF90DF90CF90BF90AF909F908F906D
:101BC0007F906F900895A1E21A2EAA1BBB1BFD0106
:101BD0000DC0AA1FBB1FEE1FFF1FA217B307E4070C
:101BE000F50720F0A21BB30BE40BF50B661F771F64
:101BF000881F991F1A9469F7609570958095909544
:101C00009B01AC01BD01CF010895EE0FFF1F0590B0
:101C1000F491E02D09941F93FC0199278827BC01BA
:101C2000E89411911032E9F3193010F01E30C8F326
:101C30001B3251F01D3249F4689406C00E944B0ECD
:101C4000610F711D811D911D119110531A30B0F358
:101C50003EF490958095709561957F4F8F4F9F4F83
:101C60001F910895FB01DC0102C001900D924150CB
:101C70005040D8F70895FB01DC018D910190801947
:101C80000110D9F3990B0895FB01DC0101900D922D
:101C90000020E1F70895592F482F372F262F660F80
:101CA000771F881F991F660F771F881F991F620F64
:101CB000731F841F951F660F771F881F991F089534
:041CC000F894FFCFC6
:101CC4000000FB0180004F4E004F4646003B000AD7
:101CD40000000000007707880A20074C0730076CD3
:021CE4000700F7
:00000001FF
